{
  "_format": "hh-sol-artifact-1",
  "contractName": "TestEvents",
  "sourceName": "contracts/TestEvents.sol",
  "abi": [
    {
      "anonymous": false,
      "inputs": [
        {
          "indexed": true,
          "internalType": "address",
          "name": "addr",
          "type": "address"
        }
      ],
      "name": "IndexedAddress",
      "type": "event"
    },
    {
      "anonymous": false,
      "inputs": [
        {
          "indexed": true,
          "internalType": "uint256[]",
          "name": "array",
          "type": "uint256[]"
        }
      ],
      "name": "IndexedArray",
      "type": "event"
    },
    {
      "anonymous": false,
      "inputs": [
        {
          "indexed": true,
          "internalType": "bool",
          "name": "isTrue",
          "type": "bool"
        }
      ],
      "name": "IndexedBool",
      "type": "event"
    },
    {
      "anonymous": false,
      "inputs": [
        {
          "indexed": true,
          "internalType": "bytes",
          "name": "dynBytes",
          "type": "bytes"
        }
      ],
      "name": "IndexedBytes",
      "type": "event"
    },
    {
      "anonymous": false,
      "inputs": [
        {
          "indexed": true,
          "internalType": "uint256[2]",
          "name": "array",
          "type": "uint256[2]"
        }
      ],
      "name": "IndexedFixedArray",
      "type": "event"
    },
    {
      "anonymous": false,
      "inputs": [
        {
          "indexed": true,
          "internalType": "bytes32",
          "name": "fixedBytes",
          "type": "bytes32"
        }
      ],
      "name": "IndexedFixedBytes",
      "type": "event"
    },
    {
      "anonymous": false,
      "inputs": [
        {
          "indexed": true,
          "internalType": "int256",
          "name": "num",
          "type": "int256"
        }
      ],
      "name": "IndexedInt",
      "type": "event"
    },
    {
      "anonymous": false,
      "inputs": [
        {
          "indexed": true,
          "internalType": "uint256[2][2]",
          "name": "array",
          "type": "uint256[2][2]"
        }
      ],
      "name": "IndexedNestedArray",
      "type": "event"
    },
    {
      "anonymous": false,
      "inputs": [
        {
          "components": [
            {
              "internalType": "uint256",
              "name": "id",
              "type": "uint256"
            },
            {
              "components": [
                {
                  "internalType": "uint256",
                  "name": "id",
                  "type": "uint256"
                },
                {
                  "internalType": "string",
                  "name": "name",
                  "type": "string"
                }
              ],
              "internalType": "struct TestEvents.TestStruct",
              "name": "testStruct",
              "type": "tuple"
            }
          ],
          "indexed": true,
          "internalType": "struct TestEvents.NestedStruct",
          "name": "nestedStruct",
          "type": "tuple"
        }
      ],
      "name": "IndexedNestedStruct",
      "type": "event"
    },
    {
      "anonymous": false,
      "inputs": [
        {
          "indexed": true,
          "internalType": "string",
          "name": "str",
          "type": "string"
        }
      ],
      "name": "IndexedString",
      "type": "event"
    },
    {
      "anonymous": false,
      "inputs": [
        {
          "components": [
            {
              "internalType": "uint256",
              "name": "id",
              "type": "uint256"
            },
            {
              "internalType": "string",
              "name": "name",
              "type": "string"
            }
          ],
          "indexed": true,
          "internalType": "struct TestEvents.TestStruct",
          "name": "testStruct",
          "type": "tuple"
        }
      ],
      "name": "IndexedStruct",
      "type": "event"
    },
    {
      "anonymous": false,
      "inputs": [
        {
          "components": [
            {
              "internalType": "uint256",
              "name": "id",
              "type": "uint256"
            },
            {
              "internalType": "string",
              "name": "name",
              "type": "string"
            }
          ],
          "indexed": true,
          "internalType": "struct TestEvents.TestStruct[2]",
          "name": "array",
          "type": "tuple[2]"
        }
      ],
      "name": "IndexedStructArray",
      "type": "event"
    },
    {
      "anonymous": false,
      "inputs": [
        {
          "components": [
            {
              "internalType": "uint256[]",
              "name": "numArr",
              "type": "uint256[]"
            },
            {
              "internalType": "string[2]",
              "name": "strArr",
              "type": "string[2]"
            }
          ],
          "indexed": true,
          "internalType": "struct TestEvents.StructWithArray",
          "name": "structWithArray",
          "type": "tuple"
        }
      ],
      "name": "IndexedStructWithArray",
      "type": "event"
    },
    {
      "anonymous": false,
      "inputs": [
        {
          "indexed": true,
          "internalType": "uint256",
          "name": "num",
          "type": "uint256"
        }
      ],
      "name": "IndexedUint",
      "type": "event"
    },
    {
      "inputs": [
        {
          "internalType": "uint256",
          "name": "id",
          "type": "uint256"
        },
        {
          "internalType": "address",
          "name": "addr",
          "type": "address"
        },
        {
          "internalType": "string",
          "name": "str",
          "type": "string"
        },
        {
          "internalType": "bool",
          "name": "isTrue",
          "type": "bool"
        },
        {
          "internalType": "bytes",
          "name": "dynBytes",
          "type": "bytes"
        },
        {
          "internalType": "bytes32",
          "name": "fixedBytes",
          "type": "bytes32"
        }
      ],
      "name": "emitTestEvents",
      "outputs": [],
      "stateMutability": "nonpayable",
      "type": "function"
    },
    {
      "inputs": [
        {
          "internalType": "uint256",
          "name": "",
          "type": "uint256"
        }
      ],
      "name": "ids",
      "outputs": [
        {
          "internalType": "uint256",
          "name": "",
          "type": "uint256"
        }
      ],
      "stateMutability": "view",
      "type": "function"
    }
  ],
  "bytecode": "0x608060405234801561001057600080fd5b50611228806100206000396000f3fe608060405234801561001057600080fd5b50600436106100365760003560e01c8063f0e5d6001461003b578063fac333ac14610057575b600080fd5b610055600480360381019061005091906108d1565b610087565b005b610071600480360381019061006c9190610996565b6105b0565b60405161007e91906109d2565b60405180910390f35b857f19bb82bd7a02b03fa3da5dc3a20f5592ca2de05229701d258d7c6bd1e4f7a85f60405160405180910390a27fffffffffffffffffffffffffffffffffffffffffffffffffffffffffffffffff866100e09190610a26565b7fa8d876f488d1e440021398f5ab42c36a51b45e5f6e29d212668c39935dce1bce60405160405180910390a28473ffffffffffffffffffffffffffffffffffffffff167f0fecb3839f031e0e2296f77de64933107916183235e0bd4c07028e4f858287f860405160405180910390a28215157f61107601b6fdedd0338b9f90e7d00beab2ff818e2896fdad255ed09fc77ca43d60405160405180910390a28160405161018c9190610b0f565b60405180910390207f302971c456dab97076d583d969187faf914418423e0641b0c0f01537060f04e760405160405180910390a2836040516101ce9190610b6d565b60405180910390207fddb75f21a11f81775d3398c7856efcf0d16770ab01545037b4a09f49ac1aefd060405160405180910390a2807fb0eba2ab892fe2f839d66ed0d211b31fcb86dd41dc99ba5a7f5a6e78dc91ef2f60405160405180910390a26040518060400160405280878152602001858152506040516102519190610c36565b60405180910390207f38c2244c02c10ba340ef114cd25104492582b9c395e2dbd911e2ba4cdfbe4ed660405160405180910390a2600086908060018154018082558091505060019003906000526020600020016000909190919091505560006001876102bd9190610c4d565b908060018154018082558091505060019003906000526020600020016000909190919091505560006040516102f29190610d62565b60405180910390207f5d9904ed2bbb0190b69d8f64c0ac688468f2a30b7cb1257ad23b27d1686c0eae60405160405180910390a260405180604001604052808781526020016001886103449190610c4d565b8152506040516103549190610dfd565b60405180910390207ff26d8e215271eeb69bc33c6044f25c731ec4a2b40ebaa5c0e8f67c895bad5f1060405160405180910390a2604051806040016040528060405180604001604052808981526020018981525081526020016040518060400160405280898152602001898152508152506040516103d29190610f16565b60405180910390207f50bc90dc53a68a4ed88956cf8eae3d9194d5d67ed1e492fd8192f2967d0816ce60405160405180910390a2604051806040016040528060405180604001604052808981526020018781525081526020016040518060400160405280898152602001878152508152506040516104509190611003565b60405180910390207fddc88bedbd7d45a12378b523ba713cd4151b2bed8d2538ce1133d69e5519d61060405160405180910390a260405180604001604052808781526020016040518060400160405280898152602001878152508152506040516104ba919061104d565b60405180910390207fa83e3eb7d7c87be6c8a1829db259262250b990d633534517bc0de99e1da2c57460405160405180910390a26040518060400160405280600080548060200260200160405190810160405280929190818152602001828054801561054557602002820191906000526020600020905b815481526020019060010190808311610531575b5050505050815260200160405180604001604052808781526020018781525081525060405161057491906111db565b60405180910390207fa7d2a164937be6e1efa03297b5f743623f5a19addf015fe9fafa3377e3f64b9c60405160405180910390a2505050505050565b600081815481106105c057600080fd5b906000526020600020016000915090505481565b6000604051905090565b600080fd5b600080fd5b6000819050919050565b6105fb816105e8565b811461060657600080fd5b50565b600081359050610618816105f2565b92915050565b600073ffffffffffffffffffffffffffffffffffffffff82169050919050565b60006106498261061e565b9050919050565b6106598161063e565b811461066457600080fd5b50565b60008135905061067681610650565b92915050565b600080fd5b600080fd5b6000601f19601f8301169050919050565b7f4e487b7100000000000000000000000000000000000000000000000000000000600052604160045260246000fd5b6106cf82610686565b810181811067ffffffffffffffff821117156106ee576106ed610697565b5b80604052505050565b60006107016105d4565b905061070d82826106c6565b919050565b600067ffffffffffffffff82111561072d5761072c610697565b5b61073682610686565b9050602081019050919050565b82818337600083830152505050565b600061076561076084610712565b6106f7565b90508281526020810184848401111561078157610780610681565b5b61078c848285610743565b509392505050565b600082601f8301126107a9576107a861067c565b5b81356107b9848260208601610752565b91505092915050565b60008115159050919050565b6107d7816107c2565b81146107e257600080fd5b50565b6000813590506107f4816107ce565b92915050565b600067ffffffffffffffff82111561081557610814610697565b5b61081e82610686565b9050602081019050919050565b600061083e610839846107fa565b6106f7565b90508281526020810184848401111561085a57610859610681565b5b610865848285610743565b509392505050565b600082601f8301126108825761088161067c565b5b813561089284826020860161082b565b91505092915050565b6000819050919050565b6108ae8161089b565b81146108b957600080fd5b50565b6000813590506108cb816108a5565b92915050565b60008060008060008060c087890312156108ee576108ed6105de565b5b60006108fc89828a01610609565b965050602061090d89828a01610667565b955050604087013567ffffffffffffffff81111561092e5761092d6105e3565b5b61093a89828a01610794565b945050606061094b89828a016107e5565b935050608087013567ffffffffffffffff81111561096c5761096b6105e3565b5b61097889828a0161086d565b92505060a061098989828a016108bc565b9150509295509295509295565b6000602082840312156109ac576109ab6105de565b5b60006109ba84828501610609565b91505092915050565b6109cc816105e8565b82525050565b60006020820190506109e760008301846109c3565b92915050565b6000819050919050565b7f4e487b7100000000000000000000000000000000000000000000000000000000600052601160045260246000fd5b6000610a31826109ed565b9150610a3c836109ed565b9250828202610a4a816109ed565b91507f80000000000000000000000000000000000000000000000000000000000000008414600084121615610a8257610a816109f7565b5b8282058414831517610a9757610a966109f7565b5b5092915050565b600081519050919050565b600081905092915050565b60005b83811015610ad2578082015181840152602081019050610ab7565b60008484015250505050565b6000610ae982610a9e565b610af38185610aa9565b9350610b03818560208601610ab4565b80840191505092915050565b6000610b1b8284610ade565b915081905092915050565b600081519050919050565b600081905092915050565b6000610b4782610b26565b610b518185610b31565b9350610b61818560208601610ab4565b80840191505092915050565b6000610b798284610b3c565b915081905092915050565b610b8d816105e8565b82525050565b6000610b9f8383610b84565b60208301905092915050565b600081905092915050565b6000610bc182610b26565b610bcb8185610bab565b9350610bdb818560208601610ab4565b610be481610686565b840191505092915050565b6000610bfb8383610bb6565b905092915050565b60008083016000830151610c178582610b93565b9450506020830151610c298582610bef565b9450508391505092915050565b6000610c428284610c03565b915081905092915050565b6000610c58826105e8565b9150610c63836105e8565b9250828201905080821115610c7b57610c7a6109f7565b5b92915050565b600081549050919050565b600081905092915050565b60008190508160005260206000209050919050565b60008160001c9050919050565b6000819050919050565b6000610cd6610cd183610cac565b610cb9565b9050919050565b6000610ce98254610cc3565b9050919050565b6000600182019050919050565b6000610d0882610c81565b610d128185610c8c565b9350610d1d83610c97565b8060005b83811015610d5557610d3282610cdd565b610d3c8882610b93565b9750610d4783610cf0565b925050600181019050610d21565b5085935050505092915050565b6000610d6e8284610cfd565b915081905092915050565b600060029050919050565b600081905092915050565b6000819050919050565b6000602082019050919050565b610daf81610d79565b610db98184610d84565b9250610dc482610d8f565b8060005b83811015610df5578151610ddc8782610b93565b9650610de783610d99565b925050600181019050610dc8565b505050505050565b6000610e098284610da6565b60408201915081905092915050565b600060029050919050565b600081905092915050565b6000819050919050565b600081905092915050565b610e4c81610d79565b610e568184610e38565b9250610e6182610d8f565b8060005b83811015610e92578151610e798782610b93565b9650610e8483610d99565b925050600181019050610e65565b505050505050565b6000610ea68383610e43565b60408301905092915050565b6000602082019050919050565b610ec881610e18565b610ed28184610e23565b9250610edd82610e2e565b8060005b83811015610f0e578151610ef58782610e9a565b9650610f0083610eb2565b925050600181019050610ee1565b505050505050565b6000610f228284610ebf565b60808201915081905092915050565b600060029050919050565b600081905092915050565b6000819050919050565b60008083016000830151610f658582610b93565b9450506020830151610f778582610bef565b9450508391505092915050565b6000610f908383610f51565b905092915050565b6000602082019050919050565b6000610fb082610f31565b610fba8185610f3c565b9350610fc583610f47565b8060005b83811015610ff6578151610fdd8882610f84565b9750610fe883610f98565b925050600181019050610fc9565b5085935050505092915050565b600061100f8284610fa5565b915081905092915050565b6000808301600083015161102e8582610b93565b94505060208301516110408582610f84565b9450508391505092915050565b6000611059828461101a565b915081905092915050565b600081519050919050565b600081905092915050565b6000819050602082019050919050565b6000602082019050919050565b60006110a282611064565b6110ac818561106f565b93506110b78361107a565b8060005b838110156110e85781516110cf8882610b93565b97506110da8361108a565b9250506001810190506110bb565b5085935050505092915050565b60006111018383611097565b905092915050565b600060029050919050565b600081905092915050565b6000819050919050565b6000602082019050919050565b600061114182611109565b61114b8185611114565b93506111568361111f565b8060005b8381101561118757815161116e8882610bef565b975061117983611129565b92505060018101905061115a565b5085935050505092915050565b60006111a08383611136565b905092915050565b600080830160008301516111bc85826110f5565b94505060208301516111ce8582611194565b9450508391505092915050565b60006111e782846111a8565b91508190509291505056fea264697066735822122030bf7032cdbf3fbb34bd7f70fd7ede42951d216ce073fc9db94df400cd8a4cf264736f6c63430008130033",
  "linkReferences": {},
  "deployedLinkReferences": {}
}