{
  "_format": "hh-sol-artifact-1",
  "contractName": "GravatarRegistry",
  "sourceName": "contracts/GravatarRegistry.sol",
  "abi": [
    {
      "inputs": [],
      "stateMutability": "nonpayable",
      "type": "constructor"
    },
    {
      "anonymous": false,
      "inputs": [
        {
          "indexed": false,
          "internalType": "uint256",
          "name": "id",
          "type": "uint256"
        },
        {
          "indexed": false,
          "internalType": "address",
          "name": "owner",
          "type": "address"
        },
        {
          "indexed": false,
          "internalType": "string",
          "name": "displayName",
          "type": "string"
        },
        {
          "indexed": false,
          "internalType": "string",
          "name": "imageUrl",
          "type": "string"
        }
      ],
      "name": "NewGravatar",
      "type": "event"
    },
    {
      "anonymous": false,
      "inputs": [
        {
          "indexed": false,
          "internalType": "uint256",
          "name": "id",
          "type": "uint256"
        },
        {
          "indexed": false,
          "internalType": "address",
          "name": "owner",
          "type": "address"
        },
        {
          "indexed": false,
          "internalType": "string",
          "name": "displayName",
          "type": "string"
        },
        {
          "indexed": false,
          "internalType": "string",
          "name": "imageUrl",
          "type": "string"
        }
      ],
      "name": "UpdatedGravatar",
      "type": "event"
    },
    {
      "inputs": [
        {
          "internalType": "string",
          "name": "_displayName",
          "type": "string"
        },
        {
          "internalType": "string",
          "name": "_imageUrl",
          "type": "string"
        }
      ],
      "name": "createGravatar",
      "outputs": [],
      "stateMutability": "nonpayable",
      "type": "function"
    },
    {
      "inputs": [
        {
          "internalType": "address",
          "name": "owner",
          "type": "address"
        }
      ],
      "name": "getGravatar",
      "outputs": [
        {
          "internalType": "uint256",
          "name": "",
          "type": "uint256"
        },
        {
          "internalType": "string",
          "name": "",
          "type": "string"
        },
        {
          "internalType": "string",
          "name": "",
          "type": "string"
        }
      ],
      "stateMutability": "view",
      "type": "function"
    },
    {
      "inputs": [
        {
          "internalType": "uint256",
          "name": "",
          "type": "uint256"
        }
      ],
      "name": "gravatarToOwner",
      "outputs": [
        {
          "internalType": "address",
          "name": "",
          "type": "address"
        }
      ],
      "stateMutability": "view",
      "type": "function"
    },
    {
      "inputs": [
        {
          "internalType": "uint256",
          "name": "",
          "type": "uint256"
        }
      ],
      "name": "gravatars",
      "outputs": [
        {
          "internalType": "address",
          "name": "owner",
          "type": "address"
        },
        {
          "internalType": "string",
          "name": "displayName",
          "type": "string"
        },
        {
          "internalType": "string",
          "name": "imageUrl",
          "type": "string"
        }
      ],
      "stateMutability": "view",
      "type": "function"
    },
    {
      "inputs": [
        {
          "internalType": "address",
          "name": "",
          "type": "address"
        }
      ],
      "name": "ownerToGravatar",
      "outputs": [
        {
          "internalType": "uint256",
          "name": "",
          "type": "uint256"
        }
      ],
      "stateMutability": "view",
      "type": "function"
    },
    {
      "inputs": [
        {
          "internalType": "string",
          "name": "_imageUrl",
          "type": "string"
        }
      ],
      "name": "updateGravatarImage",
      "outputs": [],
      "stateMutability": "nonpayable",
      "type": "function"
    },
    {
      "inputs": [
        {
          "internalType": "string",
          "name": "_displayName",
          "type": "string"
        }
      ],
      "name": "updateGravatarName",
      "outputs": [],
      "stateMutability": "nonpayable",
      "type": "function"
    }
  ],
  "bytecode": "0x60806040523480156200001157600080fd5b50600060405180606001604052803373ffffffffffffffffffffffffffffffffffffffff16815260200160405180602001604052806000815250815260200160405180602001604052806000815250815250908060018154018082558091505060019003906000526020600020906003020160009091909190915060008201518160000160006101000a81548173ffffffffffffffffffffffffffffffffffffffff021916908373ffffffffffffffffffffffffffffffffffffffff1602179055506020820151816001019081620000ea919062000385565b50604082015181600201908162000102919062000385565b5050506200046c565b600081519050919050565b7f4e487b7100000000000000000000000000000000000000000000000000000000600052604160045260246000fd5b7f4e487b7100000000000000000000000000000000000000000000000000000000600052602260045260246000fd5b600060028204905060018216806200018d57607f821691505b602082108103620001a357620001a262000145565b5b50919050565b60008190508160005260206000209050919050565b60006020601f8301049050919050565b600082821b905092915050565b6000600883026200020d7fffffffffffffffffffffffffffffffffffffffffffffffffffffffffffffffff82620001ce565b620002198683620001ce565b95508019841693508086168417925050509392505050565b6000819050919050565b6000819050919050565b600062000266620002606200025a8462000231565b6200023b565b62000231565b9050919050565b6000819050919050565b620002828362000245565b6200029a62000291826200026d565b848454620001db565b825550505050565b600090565b620002b1620002a2565b620002be81848462000277565b505050565b5b81811015620002e657620002da600082620002a7565b600181019050620002c4565b5050565b601f8211156200033557620002ff81620001a9565b6200030a84620001be565b810160208510156200031a578190505b620003326200032985620001be565b830182620002c3565b50505b505050565b600082821c905092915050565b60006200035a600019846008026200033a565b1980831691505092915050565b600062000375838362000347565b9150826002028217905092915050565b62000390826200010b565b67ffffffffffffffff811115620003ac57620003ab62000116565b5b620003b8825462000174565b620003c5828285620002ea565b600060209050601f831160018114620003fd5760008415620003e8578287015190505b620003f4858262000367565b86555062000464565b601f1984166200040d86620001a9565b60005b82811015620004375784890151825560018201915060208501945060208101905062000410565b8683101562000457578489015162000453601f89168262000347565b8355505b6001600288020188555050505b505050505050565b611464806200047c6000396000f3fe608060405234801561001057600080fd5b506004361061007c5760003560e01c8063a5ac36341161005b578063a5ac3634146100ff578063b18588fb1461012f578063cdb3344a1461014b578063d5ce24ed146101675761007c565b806281d6e514610081578063359c1f721461009d57806388d0d391146100cf575b600080fd5b61009b60048036038101906100969190610c35565b610199565b005b6100b760048036038101906100b29190610cdc565b61037d565b6040516100c693929190610da1565b60405180910390f35b6100e960048036038101906100e49190610e12565b610537565b6040516100f69190610e4e565b60405180910390f35b61011960048036038101906101149190610cdc565b61056a565b6040516101269190610e69565b60405180910390f35b61014960048036038101906101449190610c35565b610582565b005b61016560048036038101906101609190610e84565b610766565b005b610181600480360381019061017c9190610e12565b610971565b60405161019093929190610efc565b60405180910390f35b6000600260003373ffffffffffffffffffffffffffffffffffffffff1673ffffffffffffffffffffffffffffffffffffffff16815260200190815260200160002054036101e557600080fd5b6000600260003373ffffffffffffffffffffffffffffffffffffffff1673ffffffffffffffffffffffffffffffffffffffff168152602001908152602001600020548154811061023857610237610f41565b5b906000526020600020906003020160000160009054906101000a900473ffffffffffffffffffffffffffffffffffffffff1673ffffffffffffffffffffffffffffffffffffffff163373ffffffffffffffffffffffffffffffffffffffff16146102a157600080fd5b6000600260003373ffffffffffffffffffffffffffffffffffffffff1673ffffffffffffffffffffffffffffffffffffffff16815260200190815260200160002054905081600082815481106102fa576102f9610f41565b5b90600052602060002090600302016002019081610317919061117c565b507f76571b7a897a1509c641587568218a290018fbdc8b9a724f17b77ff0eec22c0c81336000848154811061034f5761034e610f41565b5b90600052602060002090600302016001018560405161037194939291906112d2565b60405180910390a15050565b60006060806000600260008673ffffffffffffffffffffffffffffffffffffffff1673ffffffffffffffffffffffffffffffffffffffff16815260200190815260200160002054905080600082815481106103db576103da610f41565b5b906000526020600020906003020160010160008381548110610400576103ff610f41565b5b906000526020600020906003020160020181805461041d90610f9f565b80601f016020809104026020016040519081016040528092919081815260200182805461044990610f9f565b80156104965780601f1061046b57610100808354040283529160200191610496565b820191906000526020600020905b81548152906001019060200180831161047957829003601f168201915b505050505091508080546104a990610f9f565b80601f01602080910402602001604051908101604052809291908181526020018280546104d590610f9f565b80156105225780601f106104f757610100808354040283529160200191610522565b820191906000526020600020905b81548152906001019060200180831161050557829003601f168201915b50505050509050935093509350509193909250565b60016020528060005260406000206000915054906101000a900473ffffffffffffffffffffffffffffffffffffffff1681565b60026020528060005260406000206000915090505481565b6000600260003373ffffffffffffffffffffffffffffffffffffffff1673ffffffffffffffffffffffffffffffffffffffff16815260200190815260200160002054036105ce57600080fd5b6000600260003373ffffffffffffffffffffffffffffffffffffffff1673ffffffffffffffffffffffffffffffffffffffff168152602001908152602001600020548154811061062157610620610f41565b5b906000526020600020906003020160000160009054906101000a900473ffffffffffffffffffffffffffffffffffffffff1673ffffffffffffffffffffffffffffffffffffffff163373ffffffffffffffffffffffffffffffffffffffff161461068a57600080fd5b6000600260003373ffffffffffffffffffffffffffffffffffffffff1673ffffffffffffffffffffffffffffffffffffffff16815260200190815260200160002054905081600082815481106106e3576106e2610f41565b5b90600052602060002090600302016001019081610700919061117c565b507f76571b7a897a1509c641587568218a290018fbdc8b9a724f17b77ff0eec22c0c8133846000858154811061073957610738610f41565b5b906000526020600020906003020160020160405161075a9493929190611325565b60405180910390a15050565b6000600260003373ffffffffffffffffffffffffffffffffffffffff1673ffffffffffffffffffffffffffffffffffffffff16815260200190815260200160002054146107b257600080fd5b600060405180606001604052803373ffffffffffffffffffffffffffffffffffffffff16815260200184815260200183815250908060018154018082558091505060019003906000526020600020906003020160009091909190915060008201518160000160006101000a81548173ffffffffffffffffffffffffffffffffffffffff021916908373ffffffffffffffffffffffffffffffffffffffff160217905550602082015181600101908161086a919061117c565b506040820151816002019081610880919061117c565b5050506000600160008054905061089791906113a7565b9050336001600083815260200190815260200160002060006101000a81548173ffffffffffffffffffffffffffffffffffffffff021916908373ffffffffffffffffffffffffffffffffffffffff16021790555080600260003373ffffffffffffffffffffffffffffffffffffffff1673ffffffffffffffffffffffffffffffffffffffff168152602001908152602001600020819055507f9ab3aefb2ba6dc12910ac1bce4692cf5c3c0d06cff16327c64a3ef78228b130b8133858560405161096494939291906113db565b60405180910390a1505050565b6000818154811061098157600080fd5b90600052602060002090600302016000915090508060000160009054906101000a900473ffffffffffffffffffffffffffffffffffffffff16908060010180546109ca90610f9f565b80601f01602080910402602001604051908101604052809291908181526020018280546109f690610f9f565b8015610a435780601f10610a1857610100808354040283529160200191610a43565b820191906000526020600020905b815481529060010190602001808311610a2657829003601f168201915b505050505090806002018054610a5890610f9f565b80601f0160208091040260200160405190810160405280929190818152602001828054610a8490610f9f565b8015610ad15780601f10610aa657610100808354040283529160200191610ad1565b820191906000526020600020905b815481529060010190602001808311610ab457829003601f168201915b5050505050905083565b6000604051905090565b600080fd5b600080fd5b600080fd5b600080fd5b6000601f19601f8301169050919050565b7f4e487b7100000000000000000000000000000000000000000000000000000000600052604160045260246000fd5b610b4282610af9565b810181811067ffffffffffffffff82111715610b6157610b60610b0a565b5b80604052505050565b6000610b74610adb565b9050610b808282610b39565b919050565b600067ffffffffffffffff821115610ba057610b9f610b0a565b5b610ba982610af9565b9050602081019050919050565b82818337600083830152505050565b6000610bd8610bd384610b85565b610b6a565b905082815260208101848484011115610bf457610bf3610af4565b5b610bff848285610bb6565b509392505050565b600082601f830112610c1c57610c1b610aef565b5b8135610c2c848260208601610bc5565b91505092915050565b600060208284031215610c4b57610c4a610ae5565b5b600082013567ffffffffffffffff811115610c6957610c68610aea565b5b610c7584828501610c07565b91505092915050565b600073ffffffffffffffffffffffffffffffffffffffff82169050919050565b6000610ca982610c7e565b9050919050565b610cb981610c9e565b8114610cc457600080fd5b50565b600081359050610cd681610cb0565b92915050565b600060208284031215610cf257610cf1610ae5565b5b6000610d0084828501610cc7565b91505092915050565b6000819050919050565b610d1c81610d09565b82525050565b600081519050919050565b600082825260208201905092915050565b60005b83811015610d5c578082015181840152602081019050610d41565b60008484015250505050565b6000610d7382610d22565b610d7d8185610d2d565b9350610d8d818560208601610d3e565b610d9681610af9565b840191505092915050565b6000606082019050610db66000830186610d13565b8181036020830152610dc88185610d68565b90508181036040830152610ddc8184610d68565b9050949350505050565b610def81610d09565b8114610dfa57600080fd5b50565b600081359050610e0c81610de6565b92915050565b600060208284031215610e2857610e27610ae5565b5b6000610e3684828501610dfd565b91505092915050565b610e4881610c9e565b82525050565b6000602082019050610e636000830184610e3f565b92915050565b6000602082019050610e7e6000830184610d13565b92915050565b60008060408385031215610e9b57610e9a610ae5565b5b600083013567ffffffffffffffff811115610eb957610eb8610aea565b5b610ec585828601610c07565b925050602083013567ffffffffffffffff811115610ee657610ee5610aea565b5b610ef285828601610c07565b9150509250929050565b6000606082019050610f116000830186610e3f565b8181036020830152610f238185610d68565b90508181036040830152610f378184610d68565b9050949350505050565b7f4e487b7100000000000000000000000000000000000000000000000000000000600052603260045260246000fd5b7f4e487b7100000000000000000000000000000000000000000000000000000000600052602260045260246000fd5b60006002820490506001821680610fb757607f821691505b602082108103610fca57610fc9610f70565b5b50919050565b60008190508160005260206000209050919050565b60006020601f8301049050919050565b600082821b905092915050565b6000600883026110327fffffffffffffffffffffffffffffffffffffffffffffffffffffffffffffffff82610ff5565b61103c8683610ff5565b95508019841693508086168417925050509392505050565b6000819050919050565b600061107961107461106f84610d09565b611054565b610d09565b9050919050565b6000819050919050565b6110938361105e565b6110a761109f82611080565b848454611002565b825550505050565b600090565b6110bc6110af565b6110c781848461108a565b505050565b5b818110156110eb576110e06000826110b4565b6001810190506110cd565b5050565b601f8211156111305761110181610fd0565b61110a84610fe5565b81016020851015611119578190505b61112d61112585610fe5565b8301826110cc565b50505b505050565b600082821c905092915050565b600061115360001984600802611135565b1980831691505092915050565b600061116c8383611142565b9150826002028217905092915050565b61118582610d22565b67ffffffffffffffff81111561119e5761119d610b0a565b5b6111a88254610f9f565b6111b38282856110ef565b600060209050601f8311600181146111e657600084156111d4578287015190505b6111de8582611160565b865550611246565b601f1984166111f486610fd0565b60005b8281101561121c578489015182556001820191506020850194506020810190506111f7565b868310156112395784890151611235601f891682611142565b8355505b6001600288020188555050505b505050505050565b6000815461125b81610f9f565b6112658186610d2d565b945060018216600081146112805760018114611296576112c9565b60ff1983168652811515602002860193506112c9565b61129f85610fd0565b60005b838110156112c1578154818901526001820191506020810190506112a2565b808801955050505b50505092915050565b60006080820190506112e76000830187610d13565b6112f46020830186610e3f565b8181036040830152611306818561124e565b9050818103606083015261131a8184610d68565b905095945050505050565b600060808201905061133a6000830187610d13565b6113476020830186610e3f565b81810360408301526113598185610d68565b9050818103606083015261136d818461124e565b905095945050505050565b7f4e487b7100000000000000000000000000000000000000000000000000000000600052601160045260246000fd5b60006113b282610d09565b91506113bd83610d09565b92508282039050818111156113d5576113d4611378565b5b92915050565b60006080820190506113f06000830187610d13565b6113fd6020830186610e3f565b818103604083015261140f8185610d68565b905081810360608301526114238184610d68565b90509594505050505056fea2646970667358221220b59d463f2c0e3408992dad6002b0b79458873b5700f8be544fe75f97432505e864736f6c63430008130033",
  "linkReferences": {},
  "deployedLinkReferences": {}
}