{
  "address": "0x19Bc0573f0e735299B9fbd24883590FcF6785f8D",
  "abi": [
    {
      "inputs": [],
      "stateMutability": "nonpayable",
      "type": "constructor"
    },
    {
      "anonymous": false,
      "inputs": [
        {
          "indexed": false,
          "internalType": "uint256",
          "name": "id",
          "type": "uint256"
        },
        {
          "indexed": false,
          "internalType": "address",
          "name": "owner",
          "type": "address"
        },
        {
          "indexed": false,
          "internalType": "string",
          "name": "displayName",
          "type": "string"
        },
        {
          "indexed": false,
          "internalType": "string",
          "name": "imageUrl",
          "type": "string"
        }
      ],
      "name": "NewGravatar",
      "type": "event"
    },
    {
      "anonymous": false,
      "inputs": [
        {
          "indexed": false,
          "internalType": "uint256",
          "name": "id",
          "type": "uint256"
        },
        {
          "indexed": false,
          "internalType": "address",
          "name": "owner",
          "type": "address"
        },
        {
          "indexed": false,
          "internalType": "string",
          "name": "displayName",
          "type": "string"
        },
        {
          "indexed": false,
          "internalType": "string",
          "name": "imageUrl",
          "type": "string"
        }
      ],
      "name": "UpdatedGravatar",
      "type": "event"
    },
    {
      "inputs": [
        {
          "internalType": "string",
          "name": "_displayName",
          "type": "string"
        },
        {
          "internalType": "string",
          "name": "_imageUrl",
          "type": "string"
        }
      ],
      "name": "createGravatar",
      "outputs": [],
      "stateMutability": "nonpayable",
      "type": "function"
    },
    {
      "inputs": [
        {
          "internalType": "address",
          "name": "owner",
          "type": "address"
        }
      ],
      "name": "getGravatar",
      "outputs": [
        {
          "internalType": "uint256",
          "name": "",
          "type": "uint256"
        },
        {
          "internalType": "string",
          "name": "",
          "type": "string"
        },
        {
          "internalType": "string",
          "name": "",
          "type": "string"
        }
      ],
      "stateMutability": "view",
      "type": "function"
    },
    {
      "inputs": [
        {
          "internalType": "uint256",
          "name": "",
          "type": "uint256"
        }
      ],
      "name": "gravatarToOwner",
      "outputs": [
        {
          "internalType": "address",
          "name": "",
          "type": "address"
        }
      ],
      "stateMutability": "view",
      "type": "function"
    },
    {
      "inputs": [
        {
          "internalType": "uint256",
          "name": "",
          "type": "uint256"
        }
      ],
      "name": "gravatars",
      "outputs": [
        {
          "internalType": "address",
          "name": "owner",
          "type": "address"
        },
        {
          "internalType": "string",
          "name": "displayName",
          "type": "string"
        },
        {
          "internalType": "string",
          "name": "imageUrl",
          "type": "string"
        }
      ],
      "stateMutability": "view",
      "type": "function"
    },
    {
      "inputs": [
        {
          "internalType": "address",
          "name": "",
          "type": "address"
        }
      ],
      "name": "ownerToGravatar",
      "outputs": [
        {
          "internalType": "uint256",
          "name": "",
          "type": "uint256"
        }
      ],
      "stateMutability": "view",
      "type": "function"
    },
    {
      "inputs": [
        {
          "internalType": "string",
          "name": "_imageUrl",
          "type": "string"
        }
      ],
      "name": "updateGravatarImage",
      "outputs": [],
      "stateMutability": "nonpayable",
      "type": "function"
    },
    {
      "inputs": [
        {
          "internalType": "string",
          "name": "_displayName",
          "type": "string"
        }
      ],
      "name": "updateGravatarName",
      "outputs": [],
      "stateMutability": "nonpayable",
      "type": "function"
    }
  ],
  "transactionHash": "0x102e7092b85e002bba4c6e2c10aeedabd3396ece6540c8600a7821462cba4e39",
  "args": [],
  "numDeployments": 1,
  "solcInputHash": "e110e986731bca7d5f98bfed1b43caa0",
  "bytecode": "0x60806040523480156200001157600080fd5b506040805160608101825233815281516020808201845260008083528184019283528451918201855280825293830152825460018101845592805281517f290decd9548b62a8d60345a988386fc84ba6bc95484008f6362f93160ef3e563600390940293840180546001600160a01b0319166001600160a01b039092169190911781559051919290917f290decd9548b62a8d60345a988386fc84ba6bc95484008f6362f93160ef3e56490910190620000cb908262000190565b5060408201516002820190620000e2908262000190565b5050506200025c565b634e487b7160e01b600052604160045260246000fd5b600181811c908216806200011657607f821691505b6020821081036200013757634e487b7160e01b600052602260045260246000fd5b50919050565b601f8211156200018b57600081815260208120601f850160051c81016020861015620001665750805b601f850160051c820191505b81811015620001875782815560010162000172565b5050505b505050565b81516001600160401b03811115620001ac57620001ac620000eb565b620001c481620001bd845462000101565b846200013d565b602080601f831160018114620001fc5760008415620001e35750858301515b600019600386901b1c1916600185901b17855562000187565b600085815260208120601f198616915b828110156200022d578886015182559484019460019091019084016200020c565b50858210156200024c5787850151600019600388901b60f8161c191681555b5050505050600190811b01905550565b610cca806200026c6000396000f3fe608060405234801561001057600080fd5b506004361061007c5760003560e01c8063a5ac36341161005b578063a5ac363414610102578063b18588fb14610130578063cdb3344a14610143578063d5ce24ed1461015657600080fd5b806281d6e514610081578063359c1f721461009657806388d0d391146100c1575b600080fd5b61009461008f36600461085b565b610178565b005b6100a96100a4366004610898565b610280565b6040516100b89392919061090e565b60405180910390f35b6100ea6100cf366004610943565b6001602052600090815260409020546001600160a01b031681565b6040516001600160a01b0390911681526020016100b8565b610122610110366004610898565b60026020526000908152604090205481565b6040519081526020016100b8565b61009461013e36600461085b565b61040f565b61009461015136600461095c565b61050b565b610169610164366004610943565b610668565b6040516100b8939291906109c0565b33600090815260026020526040812054900361019357600080fd5b33600090815260026020526040812054815481106101b3576101b36109e4565b60009182526020909120600390910201546001600160a01b031633146101d857600080fd5b33600090815260026020526040812054815490918391839081106101fe576101fe6109e4565b9060005260206000209060030201600201908161021b9190610a83565b507f76571b7a897a1509c641587568218a290018fbdc8b9a724f17b77ff0eec22c0c813360008481548110610252576102526109e4565b9060005260206000209060030201600101856040516102749493929190610bc0565b60405180910390a15050565b6001600160a01b0381166000908152600260205260408120548154606091829181908590829081106102b4576102b46109e4565b9060005260206000209060030201600101600083815481106102d8576102d86109e4565b90600052602060002090600302016002018180546102f5906109fa565b80601f0160208091040260200160405190810160405280929190818152602001828054610321906109fa565b801561036e5780601f106103435761010080835404028352916020019161036e565b820191906000526020600020905b81548152906001019060200180831161035157829003601f168201915b50505050509150808054610381906109fa565b80601f01602080910402602001604051908101604052809291908181526020018280546103ad906109fa565b80156103fa5780601f106103cf576101008083540402835291602001916103fa565b820191906000526020600020905b8154815290600101906020018083116103dd57829003601f168201915b50505050509050935093509350509193909250565b33600090815260026020526040812054900361042a57600080fd5b336000908152600260205260408120548154811061044a5761044a6109e4565b60009182526020909120600390910201546001600160a01b0316331461046f57600080fd5b3360009081526002602052604081205481549091839183908110610495576104956109e4565b906000526020600020906003020160010190816104b29190610a83565b507f76571b7a897a1509c641587568218a290018fbdc8b9a724f17b77ff0eec22c0c813384600085815481106104ea576104ea6109e4565b90600052602060002090600302016002016040516102749493929190610c07565b336000908152600260205260409020541561052557600080fd5b60408051606081018252338152602081018481529181018390526000805460018101825590805281517f290decd9548b62a8d60345a988386fc84ba6bc95484008f6362f93160ef3e563600390920291820180546001600160a01b0319166001600160a01b0390921691909117815592519192917f290decd9548b62a8d60345a988386fc84ba6bc95484008f6362f93160ef3e564909101906105c89082610a83565b50604082015160028201906105dd9082610a83565b5050600080549091506105f290600190610c43565b600081815260016020908152604080832080546001600160a01b0319163390811790915580845260029092529182902083905590519192507f9ab3aefb2ba6dc12910ac1bce4692cf5c3c0d06cff16327c64a3ef78228b130b9161065b91849187908790610c6a565b60405180910390a1505050565b6000818154811061067857600080fd5b6000918252602090912060039091020180546001820180546001600160a01b039092169350906106a7906109fa565b80601f01602080910402602001604051908101604052809291908181526020018280546106d3906109fa565b80156107205780601f106106f557610100808354040283529160200191610720565b820191906000526020600020905b81548152906001019060200180831161070357829003601f168201915b505050505090806002018054610735906109fa565b80601f0160208091040260200160405190810160405280929190818152602001828054610761906109fa565b80156107ae5780601f10610783576101008083540402835291602001916107ae565b820191906000526020600020905b81548152906001019060200180831161079157829003601f168201915b5050505050905083565b634e487b7160e01b600052604160045260246000fd5b600082601f8301126107df57600080fd5b813567ffffffffffffffff808211156107fa576107fa6107b8565b604051601f8301601f19908116603f01168101908282118183101715610822576108226107b8565b8160405283815286602085880101111561083b57600080fd5b836020870160208301376000602085830101528094505050505092915050565b60006020828403121561086d57600080fd5b813567ffffffffffffffff81111561088457600080fd5b610890848285016107ce565b949350505050565b6000602082840312156108aa57600080fd5b81356001600160a01b03811681146108c157600080fd5b9392505050565b6000815180845260005b818110156108ee576020818501810151868301820152016108d2565b506000602082860101526020601f19601f83011685010191505092915050565b83815260606020820152600061092760608301856108c8565b828103604084015261093981856108c8565b9695505050505050565b60006020828403121561095557600080fd5b5035919050565b6000806040838503121561096f57600080fd5b823567ffffffffffffffff8082111561098757600080fd5b610993868387016107ce565b935060208501359150808211156109a957600080fd5b506109b6858286016107ce565b9150509250929050565b6001600160a01b0384168152606060208201819052600090610927908301856108c8565b634e487b7160e01b600052603260045260246000fd5b600181811c90821680610a0e57607f821691505b602082108103610a2e57634e487b7160e01b600052602260045260246000fd5b50919050565b601f821115610a7e57600081815260208120601f850160051c81016020861015610a5b5750805b601f850160051c820191505b81811015610a7a57828155600101610a67565b5050505b505050565b815167ffffffffffffffff811115610a9d57610a9d6107b8565b610ab181610aab84546109fa565b84610a34565b602080601f831160018114610ae65760008415610ace5750858301515b600019600386901b1c1916600185901b178555610a7a565b600085815260208120601f198616915b82811015610b1557888601518255948401946001909101908401610af6565b5085821015610b335787850151600019600388901b60f8161c191681555b5050505050600190811b01905550565b60008154610b50816109fa565b808552602060018381168015610b6d5760018114610b8757610bb5565b60ff1985168884015283151560051b880183019550610bb5565b866000528260002060005b85811015610bad5781548a8201860152908301908401610b92565b890184019650505b505050505092915050565b8481526001600160a01b0384166020820152608060408201819052600090610bea90830185610b43565b8281036060840152610bfc81856108c8565b979650505050505050565b8481526001600160a01b0384166020820152608060408201819052600090610c31908301856108c8565b8281036060840152610bfc8185610b43565b81810381811115610c6457634e487b7160e01b600052601160045260246000fd5b92915050565b8481526001600160a01b0384166020820152608060408201819052600090610bea908301856108c856fea264697066735822122071f23bc4f6edd89b6b6e22268ba96c4bf944cd05d5e47af6875511b601f8aa1964736f6c63430008130033",
  "devdoc": {
    "kind": "dev",
    "methods": {},
    "version": 1
  },
  "userdoc": {
    "kind": "user",
    "methods": {},
    "version": 1
  },
  "storageLayout": {
    "storage": [
      {
        "astId": 32,
        "contract": "contracts/GravatarRegistry.sol:GravatarRegistry",
        "label": "gravatars",
        "offset": 0,
        "slot": "0",
        "type": "t_array(t_struct(Gravatar)28_storage)dyn_storage"
      },
      {
        "astId": 36,
        "contract": "contracts/GravatarRegistry.sol:GravatarRegistry",
        "label": "gravatarToOwner",
        "offset": 0,
        "slot": "1",
        "type": "t_mapping(t_uint256,t_address)"
      },
      {
        "astId": 40,
        "contract": "contracts/GravatarRegistry.sol:GravatarRegistry",
        "label": "ownerToGravatar",
        "offset": 0,
        "slot": "2",
        "type": "t_mapping(t_address,t_uint256)"
      }
    ],
    "types": {
      "t_address": {
        "encoding": "inplace",
        "label": "address",
        "numberOfBytes": "20"
      },
      "t_array(t_struct(Gravatar)28_storage)dyn_storage": {
        "base": "t_struct(Gravatar)28_storage",
        "encoding": "dynamic_array",
        "label": "struct GravatarRegistry.Gravatar[]",
        "numberOfBytes": "32"
      },
      "t_mapping(t_address,t_uint256)": {
        "encoding": "mapping",
        "key": "t_address",
        "label": "mapping(address => uint256)",
        "numberOfBytes": "32",
        "value": "t_uint256"
      },
      "t_mapping(t_uint256,t_address)": {
        "encoding": "mapping",
        "key": "t_uint256",
        "label": "mapping(uint256 => address)",
        "numberOfBytes": "32",
        "value": "t_address"
      },
      "t_string_storage": {
        "encoding": "bytes",
        "label": "string",
        "numberOfBytes": "32"
      },
      "t_struct(Gravatar)28_storage": {
        "encoding": "inplace",
        "label": "struct GravatarRegistry.Gravatar",
        "members": [
          {
            "astId": 23,
            "contract": "contracts/GravatarRegistry.sol:GravatarRegistry",
            "label": "owner",
            "offset": 0,
            "slot": "0",
            "type": "t_address"
          },
          {
            "astId": 25,
            "contract": "contracts/GravatarRegistry.sol:GravatarRegistry",
            "label": "displayName",
            "offset": 0,
            "slot": "1",
            "type": "t_string_storage"
          },
          {
            "astId": 27,
            "contract": "contracts/GravatarRegistry.sol:GravatarRegistry",
            "label": "imageUrl",
            "offset": 0,
            "slot": "2",
            "type": "t_string_storage"
          }
        ],
        "numberOfBytes": "96"
      },
      "t_uint256": {
        "encoding": "inplace",
        "label": "uint256",
        "numberOfBytes": "32"
      }
    }
  }
}