{
  "address": "0xB1540299B9853c11cEA52939D0C3e06b29Ad99ec",
  "abi": [
    {
      "inputs": [],
      "stateMutability": "nonpayable",
      "type": "constructor"
    },
    {
      "anonymous": false,
      "inputs": [
        {
          "indexed": false,
          "internalType": "string",
          "name": "name",
          "type": "string"
        },
        {
          "indexed": false,
          "internalType": "string",
          "name": "symbol",
          "type": "string"
        },
        {
          "indexed": false,
          "internalType": "uint256",
          "name": "maxSupply",
          "type": "uint256"
        },
        {
          "indexed": false,
          "internalType": "address",
          "name": "contractAddress",
          "type": "address"
        }
      ],
      "name": "SimpleNftCreated",
      "type": "event"
    },
    {
      "inputs": [
        {
          "internalType": "string",
          "name": "name",
          "type": "string"
        },
        {
          "internalType": "string",
          "name": "symbol",
          "type": "string"
        },
        {
          "internalType": "uint256",
          "name": "maxSupply",
          "type": "uint256"
        }
      ],
      "name": "createNft",
      "outputs": [],
      "stateMutability": "nonpayable",
      "type": "function"
    }
  ],
  "transactionHash": "0x97d0e64ffcd817930b5a3db87f2c270763d5c4a4b24e70da6849c29dd268d1ee",
  "args": [],
  "numDeployments": 1,
  "solcInputHash": "bf545600cc7f64ad89f68da4537bebcf",
  "bytecode": "0x608060405234801561001057600080fd5b50613271806100206000396000f3fe60806040523480156200001157600080fd5b50600436106200002e5760003560e01c8063587947bd1462000033575b600080fd5b6200005160048036038101906200004b919062000298565b62000053565b005b60008383836040516200006690620000d9565b6200007493929190620003cc565b604051809103906000f08015801562000091573d6000803e3d6000fd5b5090507f3d6c0a59537034543c2b659f2680883e62db3cbb1da1e1ceb4aa12ad4089984484848484604051620000cb94939291906200045c565b60405180910390a150505050565b612d8480620004b883390190565b6000604051905090565b600080fd5b600080fd5b600080fd5b600080fd5b6000601f19601f8301169050919050565b7f4e487b7100000000000000000000000000000000000000000000000000000000600052604160045260246000fd5b620001508262000105565b810181811067ffffffffffffffff8211171562000172576200017162000116565b5b80604052505050565b600062000187620000e7565b905062000195828262000145565b919050565b600067ffffffffffffffff821115620001b857620001b762000116565b5b620001c38262000105565b9050602081019050919050565b82818337600083830152505050565b6000620001f6620001f0846200019a565b6200017b565b90508281526020810184848401111562000215576200021462000100565b5b62000222848285620001d0565b509392505050565b600082601f830112620002425762000241620000fb565b5b813562000254848260208601620001df565b91505092915050565b6000819050919050565b62000272816200025d565b81146200027e57600080fd5b50565b600081359050620002928162000267565b92915050565b600080600060608486031215620002b457620002b3620000f1565b5b600084013567ffffffffffffffff811115620002d557620002d4620000f6565b5b620002e3868287016200022a565b935050602084013567ffffffffffffffff811115620003075762000306620000f6565b5b62000315868287016200022a565b9250506040620003288682870162000281565b9150509250925092565b600081519050919050565b600082825260208201905092915050565b60005b838110156200036e57808201518184015260208101905062000351565b60008484015250505050565b6000620003878262000332565b6200039381856200033d565b9350620003a58185602086016200034e565b620003b08162000105565b840191505092915050565b620003c6816200025d565b82525050565b60006060820190508181036000830152620003e881866200037a565b90508181036020830152620003fe81856200037a565b90506200040f6040830184620003bb565b949350505050565b600073ffffffffffffffffffffffffffffffffffffffff82169050919050565b6000620004448262000417565b9050919050565b620004568162000437565b82525050565b600060808201905081810360008301526200047881876200037a565b905081810360208301526200048e81866200037a565b90506200049f6040830185620003bb565b620004ae60608301846200044b565b9594505050505056fe60806040523480156200001157600080fd5b5060405162002d8438038062002d84833981810160405281019062000037919062000265565b828281600090816200004a919062000540565b5080600190816200005c919062000540565b5050506200007160066200008160201b60201c565b8060078190555050505062000627565b6001816000016000828254019250508190555050565b6000604051905090565b600080fd5b600080fd5b600080fd5b600080fd5b6000601f19601f8301169050919050565b7f4e487b7100000000000000000000000000000000000000000000000000000000600052604160045260246000fd5b6200010082620000b5565b810181811067ffffffffffffffff82111715620001225762000121620000c6565b5b80604052505050565b60006200013762000097565b9050620001458282620000f5565b919050565b600067ffffffffffffffff821115620001685762000167620000c6565b5b6200017382620000b5565b9050602081019050919050565b60005b83811015620001a057808201518184015260208101905062000183565b60008484015250505050565b6000620001c3620001bd846200014a565b6200012b565b905082815260208101848484011115620001e257620001e1620000b0565b5b620001ef84828562000180565b509392505050565b600082601f8301126200020f576200020e620000ab565b5b815162000221848260208601620001ac565b91505092915050565b6000819050919050565b6200023f816200022a565b81146200024b57600080fd5b50565b6000815190506200025f8162000234565b92915050565b600080600060608486031215620002815762000280620000a1565b5b600084015167ffffffffffffffff811115620002a257620002a1620000a6565b5b620002b086828701620001f7565b935050602084015167ffffffffffffffff811115620002d457620002d3620000a6565b5b620002e286828701620001f7565b9250506040620002f5868287016200024e565b9150509250925092565b600081519050919050565b7f4e487b7100000000000000000000000000000000000000000000000000000000600052602260045260246000fd5b600060028204905060018216806200035257607f821691505b6020821081036200036857620003676200030a565b5b50919050565b60008190508160005260206000209050919050565b60006020601f8301049050919050565b600082821b905092915050565b600060088302620003d27fffffffffffffffffffffffffffffffffffffffffffffffffffffffffffffffff8262000393565b620003de868362000393565b95508019841693508086168417925050509392505050565b6000819050919050565b6000620004216200041b62000415846200022a565b620003f6565b6200022a565b9050919050565b6000819050919050565b6200043d8362000400565b620004556200044c8262000428565b848454620003a0565b825550505050565b600090565b6200046c6200045d565b6200047981848462000432565b505050565b5b81811015620004a1576200049560008262000462565b6001810190506200047f565b5050565b601f821115620004f057620004ba816200036e565b620004c58462000383565b81016020851015620004d5578190505b620004ed620004e48562000383565b8301826200047e565b50505b505050565b600082821c905092915050565b60006200051560001984600802620004f5565b1980831691505092915050565b600062000530838362000502565b9150826002028217905092915050565b6200054b82620002ff565b67ffffffffffffffff811115620005675762000566620000c6565b5b62000573825462000339565b62000580828285620004a5565b600060209050601f831160018114620005b85760008415620005a3578287015190505b620005af858262000522565b8655506200061f565b601f198416620005c8866200036e565b60005b82811015620005f257848901518255600182019150602085019450602081019050620005cb565b868310156200061257848901516200060e601f89168262000502565b8355505b6001600288020188555050505b505050505050565b61274d80620006376000396000f3fe608060405234801561001057600080fd5b50600436106101005760003560e01c806370a0823111610097578063b88d4fde11610066578063b88d4fde146102ab578063c87b56dd146102c7578063d5abeb01146102f7578063e985e9c51461031557610100565b806370a082311461022557806395d89b4114610255578063a0712d6814610273578063a22cb4651461028f57610100565b806318160ddd116100d357806318160ddd1461019f57806323b872dd146101bd57806342842e0e146101d95780636352211e146101f557610100565b806301ffc9a71461010557806306fdde0314610135578063081812fc14610153578063095ea7b314610183575b600080fd5b61011f600480360381019061011a91906118fe565b610345565b60405161012c9190611946565b60405180910390f35b61013d610427565b60405161014a91906119f1565b60405180910390f35b61016d60048036038101906101689190611a49565b6104b9565b60405161017a9190611ab7565b60405180910390f35b61019d60048036038101906101989190611afe565b6104ff565b005b6101a7610616565b6040516101b49190611b4d565b60405180910390f35b6101d760048036038101906101d29190611b68565b610633565b005b6101f360048036038101906101ee9190611b68565b610693565b005b61020f600480360381019061020a9190611a49565b6106b3565b60405161021c9190611ab7565b60405180910390f35b61023f600480360381019061023a9190611bbb565b610739565b60405161024c9190611b4d565b60405180910390f35b61025d6107f0565b60405161026a91906119f1565b60405180910390f35b61028d60048036038101906102889190611a49565b610882565b005b6102a960048036038101906102a49190611c14565b6108e8565b005b6102c560048036038101906102c09190611d89565b6108fe565b005b6102e160048036038101906102dc9190611a49565b610960565b6040516102ee91906119f1565b60405180910390f35b6102ff6109c8565b60405161030c9190611b4d565b60405180910390f35b61032f600480360381019061032a9190611e0c565b6109ce565b60405161033c9190611946565b60405180910390f35b60007f80ac58cd000000000000000000000000000000000000000000000000000000007bffffffffffffffffffffffffffffffffffffffffffffffffffffffff1916827bffffffffffffffffffffffffffffffffffffffffffffffffffffffff1916148061041057507f5b5e139f000000000000000000000000000000000000000000000000000000007bffffffffffffffffffffffffffffffffffffffffffffffffffffffff1916827bffffffffffffffffffffffffffffffffffffffffffffffffffffffff1916145b80610420575061041f82610a62565b5b9050919050565b60606000805461043690611e7b565b80601f016020809104026020016040519081016040528092919081815260200182805461046290611e7b565b80156104af5780601f10610484576101008083540402835291602001916104af565b820191906000526020600020905b81548152906001019060200180831161049257829003601f168201915b5050505050905090565b60006104c482610acc565b6004600083815260200190815260200160002060009054906101000a900473ffffffffffffffffffffffffffffffffffffffff169050919050565b600061050a826106b3565b90508073ffffffffffffffffffffffffffffffffffffffff168373ffffffffffffffffffffffffffffffffffffffff160361057a576040517f08c379a000000000000000000000000000000000000000000000000000000000815260040161057190611f1e565b60405180910390fd5b8073ffffffffffffffffffffffffffffffffffffffff16610599610b17565b73ffffffffffffffffffffffffffffffffffffffff1614806105c857506105c7816105c2610b17565b6109ce565b5b610607576040517f08c379a00000000000000000000000000000000000000000000000000000000081526004016105fe90611fb0565b60405180910390fd5b6106118383610b1f565b505050565b600060016106246006610bd8565b61062e9190611fff565b905090565b61064461063e610b17565b82610be6565b610683576040517f08c379a000000000000000000000000000000000000000000000000000000000815260040161067a906120a5565b60405180910390fd5b61068e838383610c7b565b505050565b6106ae838383604051806020016040528060008152506108fe565b505050565b6000806106bf83610f74565b9050600073ffffffffffffffffffffffffffffffffffffffff168173ffffffffffffffffffffffffffffffffffffffff1603610730576040517f08c379a000000000000000000000000000000000000000000000000000000000815260040161072790612111565b60405180910390fd5b80915050919050565b60008073ffffffffffffffffffffffffffffffffffffffff168273ffffffffffffffffffffffffffffffffffffffff16036107a9576040517f08c379a00000000000000000000000000000000000000000000000000000000081526004016107a0906121a3565b60405180910390fd5b600360008373ffffffffffffffffffffffffffffffffffffffff1673ffffffffffffffffffffffffffffffffffffffff168152602001908152602001600020549050919050565b6060600180546107ff90611e7b565b80601f016020809104026020016040519081016040528092919081815260200182805461082b90611e7b565b80156108785780601f1061084d57610100808354040283529160200191610878565b820191906000526020600020905b81548152906001019060200180831161085b57829003601f168201915b5050505050905090565b60075461088f6006610bd8565b8261089a91906121c3565b11156108db576040517f08c379a00000000000000000000000000000000000000000000000000000000081526004016108d290612243565b60405180910390fd5b6108e53382610fb1565b50565b6108fa6108f3610b17565b8383610fef565b5050565b61090f610909610b17565b83610be6565b61094e576040517f08c379a0000000000000000000000000000000000000000000000000000000008152600401610945906120a5565b60405180910390fd5b61095a8484848461115b565b50505050565b606061096b82610acc565b60006109756111b7565b9050600081511161099557604051806020016040528060008152506109c0565b8061099f846111ce565b6040516020016109b092919061229f565b6040516020818303038152906040525b915050919050565b60075481565b6000600560008473ffffffffffffffffffffffffffffffffffffffff1673ffffffffffffffffffffffffffffffffffffffff16815260200190815260200160002060008373ffffffffffffffffffffffffffffffffffffffff1673ffffffffffffffffffffffffffffffffffffffff16815260200190815260200160002060009054906101000a900460ff16905092915050565b60007f01ffc9a7000000000000000000000000000000000000000000000000000000007bffffffffffffffffffffffffffffffffffffffffffffffffffffffff1916827bffffffffffffffffffffffffffffffffffffffffffffffffffffffff1916149050919050565b610ad58161129c565b610b14576040517f08c379a0000000000000000000000000000000000000000000000000000000008152600401610b0b90612111565b60405180910390fd5b50565b600033905090565b816004600083815260200190815260200160002060006101000a81548173ffffffffffffffffffffffffffffffffffffffff021916908373ffffffffffffffffffffffffffffffffffffffff160217905550808273ffffffffffffffffffffffffffffffffffffffff16610b92836106b3565b73ffffffffffffffffffffffffffffffffffffffff167f8c5be1e5ebec7d5bd14f71427d1e84f3dd0314c0f7b2291e5b200ac8c7c3b92560405160405180910390a45050565b600081600001549050919050565b600080610bf2836106b3565b90508073ffffffffffffffffffffffffffffffffffffffff168473ffffffffffffffffffffffffffffffffffffffff161480610c345750610c3381856109ce565b5b80610c7257508373ffffffffffffffffffffffffffffffffffffffff16610c5a846104b9565b73ffffffffffffffffffffffffffffffffffffffff16145b91505092915050565b8273ffffffffffffffffffffffffffffffffffffffff16610c9b826106b3565b73ffffffffffffffffffffffffffffffffffffffff1614610cf1576040517f08c379a0000000000000000000000000000000000000000000000000000000008152600401610ce890612335565b60405180910390fd5b600073ffffffffffffffffffffffffffffffffffffffff168273ffffffffffffffffffffffffffffffffffffffff1603610d60576040517f08c379a0000000000000000000000000000000000000000000000000000000008152600401610d57906123c7565b60405180910390fd5b610d6d83838360016112dd565b8273ffffffffffffffffffffffffffffffffffffffff16610d8d826106b3565b73ffffffffffffffffffffffffffffffffffffffff1614610de3576040517f08c379a0000000000000000000000000000000000000000000000000000000008152600401610dda90612335565b60405180910390fd5b6004600082815260200190815260200160002060006101000a81549073ffffffffffffffffffffffffffffffffffffffff02191690556001600360008573ffffffffffffffffffffffffffffffffffffffff1673ffffffffffffffffffffffffffffffffffffffff168152602001908152602001600020600082825403925050819055506001600360008473ffffffffffffffffffffffffffffffffffffffff1673ffffffffffffffffffffffffffffffffffffffff16815260200190815260200160002060008282540192505081905550816002600083815260200190815260200160002060006101000a81548173ffffffffffffffffffffffffffffffffffffffff021916908373ffffffffffffffffffffffffffffffffffffffff160217905550808273ffffffffffffffffffffffffffffffffffffffff168473ffffffffffffffffffffffffffffffffffffffff167fddf252ad1be2c89b69c2b068fc378daa952ba7f163c4a11628f55a4df523b3ef60405160405180910390a4610f6f83838360016112e3565b505050565b60006002600083815260200190815260200160002060009054906101000a900473ffffffffffffffffffffffffffffffffffffffff169050919050565b60005b81811015610fea57610fcf83610fca6006610bd8565b6112e9565b610fd96006611307565b80610fe3906123e7565b9050610fb4565b505050565b8173ffffffffffffffffffffffffffffffffffffffff168373ffffffffffffffffffffffffffffffffffffffff160361105d576040517f08c379a00000000000000000000000000000000000000000000000000000000081526004016110549061247b565b60405180910390fd5b80600560008573ffffffffffffffffffffffffffffffffffffffff1673ffffffffffffffffffffffffffffffffffffffff16815260200190815260200160002060008473ffffffffffffffffffffffffffffffffffffffff1673ffffffffffffffffffffffffffffffffffffffff16815260200190815260200160002060006101000a81548160ff0219169083151502179055508173ffffffffffffffffffffffffffffffffffffffff168373ffffffffffffffffffffffffffffffffffffffff167f17307eab39ab6107e8899845ad3d59bd9653f200f220920489ca2b5937696c318360405161114e9190611946565b60405180910390a3505050565b611166848484610c7b565b6111728484848461131d565b6111b1576040517f08c379a00000000000000000000000000000000000000000000000000000000081526004016111a89061250d565b60405180910390fd5b50505050565b606060405180602001604052806000815250905090565b6060600060016111dd846114a4565b01905060008167ffffffffffffffff8111156111fc576111fb611c5e565b5b6040519080825280601f01601f19166020018201604052801561122e5781602001600182028036833780820191505090505b509050600082602001820190505b600115611291578080600190039150507f3031323334353637383961626364656600000000000000000000000000000000600a86061a8153600a85816112855761128461252d565b5b0494506000850361123c575b819350505050919050565b60008073ffffffffffffffffffffffffffffffffffffffff166112be83610f74565b73ffffffffffffffffffffffffffffffffffffffff1614159050919050565b50505050565b50505050565b6113038282604051806020016040528060008152506115f7565b5050565b6001816000016000828254019250508190555050565b600061133e8473ffffffffffffffffffffffffffffffffffffffff16611652565b15611497578373ffffffffffffffffffffffffffffffffffffffff1663150b7a02611367610b17565b8786866040518563ffffffff1660e01b815260040161138994939291906125b1565b6020604051808303816000875af19250505080156113c557506040513d601f19601f820116820180604052508101906113c29190612612565b60015b611447573d80600081146113f5576040519150601f19603f3d011682016040523d82523d6000602084013e6113fa565b606091505b50600081510361143f576040517f08c379a00000000000000000000000000000000000000000000000000000000081526004016114369061250d565b60405180910390fd5b805181602001fd5b63150b7a0260e01b7bffffffffffffffffffffffffffffffffffffffffffffffffffffffff1916817bffffffffffffffffffffffffffffffffffffffffffffffffffffffff19161491505061149c565b600190505b949350505050565b600080600090507a184f03e93ff9f4daa797ed6e38ed64bf6a1f0100000000000000008310611502577a184f03e93ff9f4daa797ed6e38ed64bf6a1f01000000000000000083816114f8576114f761252d565b5b0492506040810190505b6d04ee2d6d415b85acef8100000000831061153f576d04ee2d6d415b85acef810000000083816115355761153461252d565b5b0492506020810190505b662386f26fc10000831061156e57662386f26fc1000083816115645761156361252d565b5b0492506010810190505b6305f5e1008310611597576305f5e100838161158d5761158c61252d565b5b0492506008810190505b61271083106115bc5761271083816115b2576115b161252d565b5b0492506004810190505b606483106115df57606483816115d5576115d461252d565b5b0492506002810190505b600a83106115ee576001810190505b80915050919050565b6116018383611675565b61160e600084848461131d565b61164d576040517f08c379a00000000000000000000000000000000000000000000000000000000081526004016116449061250d565b60405180910390fd5b505050565b6000808273ffffffffffffffffffffffffffffffffffffffff163b119050919050565b600073ffffffffffffffffffffffffffffffffffffffff168273ffffffffffffffffffffffffffffffffffffffff16036116e4576040517f08c379a00000000000000000000000000000000000000000000000000000000081526004016116db9061268b565b60405180910390fd5b6116ed8161129c565b1561172d576040517f08c379a0000000000000000000000000000000000000000000000000000000008152600401611724906126f7565b60405180910390fd5b61173b6000838360016112dd565b6117448161129c565b15611784576040517f08c379a000000000000000000000000000000000000000000000000000000000815260040161177b906126f7565b60405180910390fd5b6001600360008473ffffffffffffffffffffffffffffffffffffffff1673ffffffffffffffffffffffffffffffffffffffff16815260200190815260200160002060008282540192505081905550816002600083815260200190815260200160002060006101000a81548173ffffffffffffffffffffffffffffffffffffffff021916908373ffffffffffffffffffffffffffffffffffffffff160217905550808273ffffffffffffffffffffffffffffffffffffffff16600073ffffffffffffffffffffffffffffffffffffffff167fddf252ad1be2c89b69c2b068fc378daa952ba7f163c4a11628f55a4df523b3ef60405160405180910390a461188e6000838360016112e3565b5050565b6000604051905090565b600080fd5b600080fd5b60007fffffffff0000000000000000000000000000000000000000000000000000000082169050919050565b6118db816118a6565b81146118e657600080fd5b50565b6000813590506118f8816118d2565b92915050565b6000602082840312156119145761191361189c565b5b6000611922848285016118e9565b91505092915050565b60008115159050919050565b6119408161192b565b82525050565b600060208201905061195b6000830184611937565b92915050565b600081519050919050565b600082825260208201905092915050565b60005b8381101561199b578082015181840152602081019050611980565b60008484015250505050565b6000601f19601f8301169050919050565b60006119c382611961565b6119cd818561196c565b93506119dd81856020860161197d565b6119e6816119a7565b840191505092915050565b60006020820190508181036000830152611a0b81846119b8565b905092915050565b6000819050919050565b611a2681611a13565b8114611a3157600080fd5b50565b600081359050611a4381611a1d565b92915050565b600060208284031215611a5f57611a5e61189c565b5b6000611a6d84828501611a34565b91505092915050565b600073ffffffffffffffffffffffffffffffffffffffff82169050919050565b6000611aa182611a76565b9050919050565b611ab181611a96565b82525050565b6000602082019050611acc6000830184611aa8565b92915050565b611adb81611a96565b8114611ae657600080fd5b50565b600081359050611af881611ad2565b92915050565b60008060408385031215611b1557611b1461189c565b5b6000611b2385828601611ae9565b9250506020611b3485828601611a34565b9150509250929050565b611b4781611a13565b82525050565b6000602082019050611b626000830184611b3e565b92915050565b600080600060608486031215611b8157611b8061189c565b5b6000611b8f86828701611ae9565b9350506020611ba086828701611ae9565b9250506040611bb186828701611a34565b9150509250925092565b600060208284031215611bd157611bd061189c565b5b6000611bdf84828501611ae9565b91505092915050565b611bf18161192b565b8114611bfc57600080fd5b50565b600081359050611c0e81611be8565b92915050565b60008060408385031215611c2b57611c2a61189c565b5b6000611c3985828601611ae9565b9250506020611c4a85828601611bff565b9150509250929050565b600080fd5b600080fd5b7f4e487b7100000000000000000000000000000000000000000000000000000000600052604160045260246000fd5b611c96826119a7565b810181811067ffffffffffffffff82111715611cb557611cb4611c5e565b5b80604052505050565b6000611cc8611892565b9050611cd48282611c8d565b919050565b600067ffffffffffffffff821115611cf457611cf3611c5e565b5b611cfd826119a7565b9050602081019050919050565b82818337600083830152505050565b6000611d2c611d2784611cd9565b611cbe565b905082815260208101848484011115611d4857611d47611c59565b5b611d53848285611d0a565b509392505050565b600082601f830112611d7057611d6f611c54565b5b8135611d80848260208601611d19565b91505092915050565b60008060008060808587031215611da357611da261189c565b5b6000611db187828801611ae9565b9450506020611dc287828801611ae9565b9350506040611dd387828801611a34565b925050606085013567ffffffffffffffff811115611df457611df36118a1565b5b611e0087828801611d5b565b91505092959194509250565b60008060408385031215611e2357611e2261189c565b5b6000611e3185828601611ae9565b9250506020611e4285828601611ae9565b9150509250929050565b7f4e487b7100000000000000000000000000000000000000000000000000000000600052602260045260246000fd5b60006002820490506001821680611e9357607f821691505b602082108103611ea657611ea5611e4c565b5b50919050565b7f4552433732313a20617070726f76616c20746f2063757272656e74206f776e6560008201527f7200000000000000000000000000000000000000000000000000000000000000602082015250565b6000611f0860218361196c565b9150611f1382611eac565b604082019050919050565b60006020820190508181036000830152611f3781611efb565b9050919050565b7f4552433732313a20617070726f76652063616c6c6572206973206e6f7420746f60008201527f6b656e206f776e6572206f7220617070726f76656420666f7220616c6c000000602082015250565b6000611f9a603d8361196c565b9150611fa582611f3e565b604082019050919050565b60006020820190508181036000830152611fc981611f8d565b9050919050565b7f4e487b7100000000000000000000000000000000000000000000000000000000600052601160045260246000fd5b600061200a82611a13565b915061201583611a13565b925082820390508181111561202d5761202c611fd0565b5b92915050565b7f4552433732313a2063616c6c6572206973206e6f7420746f6b656e206f776e6560008201527f72206f7220617070726f76656400000000000000000000000000000000000000602082015250565b600061208f602d8361196c565b915061209a82612033565b604082019050919050565b600060208201905081810360008301526120be81612082565b9050919050565b7f4552433732313a20696e76616c696420746f6b656e2049440000000000000000600082015250565b60006120fb60188361196c565b9150612106826120c5565b602082019050919050565b6000602082019050818103600083015261212a816120ee565b9050919050565b7f4552433732313a2061646472657373207a65726f206973206e6f74206120766160008201527f6c6964206f776e65720000000000000000000000000000000000000000000000602082015250565b600061218d60298361196c565b915061219882612131565b604082019050919050565b600060208201905081810360008301526121bc81612180565b9050919050565b60006121ce82611a13565b91506121d983611a13565b92508282019050808211156121f1576121f0611fd0565b5b92915050565b7f4d617820737570706c7920657863656564656400000000000000000000000000600082015250565b600061222d60138361196c565b9150612238826121f7565b602082019050919050565b6000602082019050818103600083015261225c81612220565b9050919050565b600081905092915050565b600061227982611961565b6122838185612263565b935061229381856020860161197d565b80840191505092915050565b60006122ab828561226e565b91506122b7828461226e565b91508190509392505050565b7f4552433732313a207472616e736665722066726f6d20696e636f72726563742060008201527f6f776e6572000000000000000000000000000000000000000000000000000000602082015250565b600061231f60258361196c565b915061232a826122c3565b604082019050919050565b6000602082019050818103600083015261234e81612312565b9050919050565b7f4552433732313a207472616e7366657220746f20746865207a65726f2061646460008201527f7265737300000000000000000000000000000000000000000000000000000000602082015250565b60006123b160248361196c565b91506123bc82612355565b604082019050919050565b600060208201905081810360008301526123e0816123a4565b9050919050565b60006123f282611a13565b91507fffffffffffffffffffffffffffffffffffffffffffffffffffffffffffffffff820361242457612423611fd0565b5b600182019050919050565b7f4552433732313a20617070726f766520746f2063616c6c657200000000000000600082015250565b600061246560198361196c565b91506124708261242f565b602082019050919050565b6000602082019050818103600083015261249481612458565b9050919050565b7f4552433732313a207472616e7366657220746f206e6f6e20455243373231526560008201527f63656976657220696d706c656d656e7465720000000000000000000000000000602082015250565b60006124f760328361196c565b91506125028261249b565b604082019050919050565b60006020820190508181036000830152612526816124ea565b9050919050565b7f4e487b7100000000000000000000000000000000000000000000000000000000600052601260045260246000fd5b600081519050919050565b600082825260208201905092915050565b60006125838261255c565b61258d8185612567565b935061259d81856020860161197d565b6125a6816119a7565b840191505092915050565b60006080820190506125c66000830187611aa8565b6125d36020830186611aa8565b6125e06040830185611b3e565b81810360608301526125f28184612578565b905095945050505050565b60008151905061260c816118d2565b92915050565b6000602082840312156126285761262761189c565b5b6000612636848285016125fd565b91505092915050565b7f4552433732313a206d696e7420746f20746865207a65726f2061646472657373600082015250565b600061267560208361196c565b91506126808261263f565b602082019050919050565b600060208201905081810360008301526126a481612668565b9050919050565b7f4552433732313a20746f6b656e20616c7265616479206d696e74656400000000600082015250565b60006126e1601c8361196c565b91506126ec826126ab565b602082019050919050565b60006020820190508181036000830152612710816126d4565b905091905056fea264697066735822122034372c12db5da63334e77deb97a705fd3aa3884d92318666bdd7aaf1acb5a4f964736f6c63430008130033a26469706673582212206a2c6ae6eb56d0e17f2ded99bc60ab8c3a31826fc2ac9b1a3e1046be118900d564736f6c63430008130033",
  "devdoc": {
    "kind": "dev",
    "methods": {},
    "version": 1
  },
  "userdoc": {
    "kind": "user",
    "methods": {},
    "version": 1
  },
  "storageLayout": {
    "storage": [],
    "types": null
  }
}