{
  "_format": "hh-sol-artifact-1",
  "contractName": "Greeter",
  "sourceName": "contracts/Greeter.sol",
  "abi": [
    {
      "inputs": [
        {
          "internalType": "string",
          "name": "_greeting",
          "type": "string"
        }
      ],
      "stateMutability": "nonpayable",
      "type": "constructor"
    },
    {
      "inputs": [],
      "name": "GreeterError",
      "type": "error"
    },
    {
      "inputs": [],
      "name": "greet",
      "outputs": [
        {
          "internalType": "string",
          "name": "",
          "type": "string"
        }
      ],
      "stateMutability": "view",
      "type": "function"
    },
    {
      "inputs": [],
      "name": "greeting",
      "outputs": [
        {
          "internalType": "string",
          "name": "",
          "type": "string"
        }
      ],
      "stateMutability": "view",
      "type": "function"
    },
    {
      "inputs": [
        {
          "internalType": "string",
          "name": "_greeting",
          "type": "string"
        }
      ],
      "name": "setGreeting",
      "outputs": [],
      "stateMutability": "nonpayable",
      "type": "function"
    },
    {
      "inputs": [],
      "name": "throwError",
      "outputs": [],
      "stateMutability": "pure",
      "type": "function"
    }
  ],
  "bytecode": "0x60806040523480156200001157600080fd5b5060405162000a4338038062000a43833981016040819052620000349162000128565b6200006460405180606001604052806022815260200162000a2160229139826200007a60201b6200028a1760201c565b60006200007282826200026f565b50506200039b565b620000c782826040516024016200009392919062000369565b60408051601f198184030181529190526020810180516001600160e01b03908116634b5c427760e01b17909152620000cb16565b5050565b80516a636f6e736f6c652e6c6f67602083016000808483855afa5050505050565b634e487b7160e01b600052604160045260246000fd5b60005b838110156200011f57818101518382015260200162000105565b50506000910152565b6000602082840312156200013b57600080fd5b81516001600160401b03808211156200015357600080fd5b818401915084601f8301126200016857600080fd5b8151818111156200017d576200017d620000ec565b604051601f8201601f19908116603f01168101908382118183101715620001a857620001a8620000ec565b81604052828152876020848701011115620001c257600080fd5b620001d583602083016020880162000102565b979650505050505050565b600181811c90821680620001f557607f821691505b6020821081036200021657634e487b7160e01b600052602260045260246000fd5b50919050565b601f8211156200026a57600081815260208120601f850160051c81016020861015620002455750805b601f850160051c820191505b81811015620002665782815560010162000251565b5050505b505050565b81516001600160401b038111156200028b576200028b620000ec565b620002a3816200029c8454620001e0565b846200021c565b602080601f831160018114620002db5760008415620002c25750858301515b600019600386901b1c1916600185901b17855562000266565b600085815260208120601f198616915b828110156200030c57888601518255948401946001909101908401620002eb565b50858210156200032b5787850151600019600388901b60f8161c191681555b5050505050600190811b01905550565b600081518084526200035581602086016020860162000102565b601f01601f19169290920160200192915050565b6040815260006200037e60408301856200033b565b82810360208401526200039281856200033b565b95945050505050565b61067680620003ab6000396000f3fe608060405234801561001057600080fd5b506004361061004c5760003560e01c80632f7643a814610051578063a41368621461005b578063cfae32171461006e578063ef690cc01461008c575b600080fd5b610059610094565b005b61005961006936600461037c565b6100ad565b61007661016a565b6040516100839190610473565b60405180910390f35b6100766101fc565b60405163c8508fc360e01b815260040160405180910390fd5b61015a60405180606001604052806023815260200161064760239139600080546100d69061048d565b80601f01602080910402602001604051908101604052809291908181526020018280546101029061048d565b801561014f5780601f106101245761010080835404028352916020019161014f565b820191906000526020600020905b81548152906001019060200180831161013257829003601f168201915b5050505050836102e4565b60006101668282610515565b5050565b6060600080546101799061048d565b80601f01602080910402602001604051908101604052809291908181526020018280546101a59061048d565b80156101f25780601f106101c7576101008083540402835291602001916101f2565b820191906000526020600020905b8154815290600101906020018083116101d557829003601f168201915b5050505050905090565b600080546102099061048d565b80601f01602080910402602001604051908101604052809291908181526020018280546102359061048d565b80156102825780601f1061025757610100808354040283529160200191610282565b820191906000526020600020905b81548152906001019060200180831161026557829003601f168201915b505050505081565b61016682826040516024016102a09291906105d5565b60408051601f198184030181529190526020810180517bffffffffffffffffffffffffffffffffffffffffffffffffffffffff16634b5c427760e01b179052610345565b6103408383836040516024016102fc93929190610603565b60408051601f198184030181529190526020810180517bffffffffffffffffffffffffffffffffffffffffffffffffffffffff16632ced7cef60e01b179052610345565b505050565b80516a636f6e736f6c652e6c6f67602083016000808483855afa5050505050565b634e487b7160e01b600052604160045260246000fd5b60006020828403121561038e57600080fd5b813567ffffffffffffffff808211156103a657600080fd5b818401915084601f8301126103ba57600080fd5b8135818111156103cc576103cc610366565b604051601f8201601f19908116603f011681019083821181831017156103f4576103f4610366565b8160405282815287602084870101111561040d57600080fd5b826020860160208301376000928101602001929092525095945050505050565b6000815180845260005b8181101561045357602081850181015186830182015201610437565b506000602082860101526020601f19601f83011685010191505092915050565b602081526000610486602083018461042d565b9392505050565b600181811c908216806104a157607f821691505b6020821081036104c157634e487b7160e01b600052602260045260246000fd5b50919050565b601f82111561034057600081815260208120601f850160051c810160208610156104ee5750805b601f850160051c820191505b8181101561050d578281556001016104fa565b505050505050565b815167ffffffffffffffff81111561052f5761052f610366565b6105438161053d845461048d565b846104c7565b602080601f83116001811461057857600084156105605750858301515b600019600386901b1c1916600185901b17855561050d565b600085815260208120601f198616915b828110156105a757888601518255948401946001909101908401610588565b50858210156105c55787850151600019600388901b60f8161c191681555b5050505050600190811b01905550565b6040815260006105e8604083018561042d565b82810360208401526105fa818561042d565b95945050505050565b606081526000610616606083018661042d565b8281036020840152610628818661042d565b9050828103604084015261063c818561042d565b969550505050505056fe4368616e67696e67206772656574696e672066726f6d202725732720746f2027257327a164736f6c6343000811000a4465706c6f79696e67206120477265657465722077697468206772656574696e673a",
  "linkReferences": {},
  "deployedLinkReferences": {}
}