{
  "address": "0x2B2f78c5BF6D9C12Ee1225D5F374aa91204580c3",
  "abi": [
    {
      "inputs": [
        {
          "internalType": "uint256",
          "name": "_interestRate",
          "type": "uint256"
        }
      ],
      "stateMutability": "nonpayable",
      "type": "constructor"
    },
    {
      "anonymous": false,
      "inputs": [
        {
          "indexed": true,
          "internalType": "address",
          "name": "userAddress",
          "type": "address"
        }
      ],
      "name": "AccountCreated",
      "type": "event"
    },
    {
      "anonymous": false,
      "inputs": [
        {
          "indexed": true,
          "internalType": "address",
          "name": "userAddress",
          "type": "address"
        },
        {
          "indexed": false,
          "internalType": "uint256",
          "name": "amount",
          "type": "uint256"
        }
      ],
      "name": "DepositMade",
      "type": "event"
    },
    {
      "anonymous": false,
      "inputs": [
        {
          "indexed": false,
          "internalType": "uint256",
          "name": "interest",
          "type": "uint256"
        }
      ],
      "name": "InterestCalculated",
      "type": "event"
    },
    {
      "anonymous": false,
      "inputs": [
        {
          "indexed": false,
          "internalType": "uint256",
          "name": "totalBalance",
          "type": "uint256"
        }
      ],
      "name": "TotalBalanceChanged",
      "type": "event"
    },
    {
      "anonymous": false,
      "inputs": [
        {
          "indexed": true,
          "internalType": "address",
          "name": "userAddress",
          "type": "address"
        },
        {
          "indexed": false,
          "internalType": "uint256",
          "name": "amount",
          "type": "uint256"
        }
      ],
      "name": "WithdrawalMade",
      "type": "event"
    },
    {
      "inputs": [
        {
          "internalType": "address",
          "name": "userAddress",
          "type": "address"
        }
      ],
      "name": "createAccount",
      "outputs": [],
      "stateMutability": "nonpayable",
      "type": "function"
    },
    {
      "inputs": [
        {
          "internalType": "address",
          "name": "userAddress",
          "type": "address"
        },
        {
          "internalType": "uint256",
          "name": "depositAmount",
          "type": "uint256"
        }
      ],
      "name": "deposit",
      "outputs": [],
      "stateMutability": "nonpayable",
      "type": "function"
    },
    {
      "inputs": [
        {
          "internalType": "address",
          "name": "userAddress",
          "type": "address"
        }
      ],
      "name": "getBalance",
      "outputs": [
        {
          "internalType": "uint256",
          "name": "",
          "type": "uint256"
        }
      ],
      "stateMutability": "view",
      "type": "function"
    },
    {
      "inputs": [],
      "name": "getTotalBalance",
      "outputs": [
        {
          "internalType": "uint256",
          "name": "",
          "type": "uint256"
        }
      ],
      "stateMutability": "view",
      "type": "function"
    },
    {
      "inputs": [
        {
          "internalType": "address",
          "name": "userAddress",
          "type": "address"
        },
        {
          "internalType": "uint256",
          "name": "withdrawalAmount",
          "type": "uint256"
        }
      ],
      "name": "withdraw",
      "outputs": [],
      "stateMutability": "nonpayable",
      "type": "function"
    }
  ],
  "transactionHash": "0xfffc229c53b62acaa065b37352725af59db2911f991cdedaf3be1e6acfc93a4d",
  "args": [
    0
  ],
  "numDeployments": 1,
  "solcInputHash": "c385370465dc5219afbe08715e1f5d3f",
  "bytecode": "0x608060405234801561001057600080fd5b50604051610cbb380380610cbb8339818101604052810190610032919061007a565b80600281905550506100a7565b600080fd5b6000819050919050565b61005781610044565b811461006257600080fd5b50565b6000815190506100748161004e565b92915050565b6000602082840312156100905761008f61003f565b5b600061009e84828501610065565b91505092915050565b610c05806100b66000396000f3fe608060405234801561001057600080fd5b50600436106100575760003560e01c806312b583491461005c57806347e7ef241461007a5780639859387b14610096578063f3fef3a3146100b2578063f8b2cb4f146100ce575b600080fd5b6100646100fe565b6040516100719190610772565b60405180910390f35b610094600480360381019061008f919061081c565b610108565b005b6100b060048036038101906100ab919061085c565b61024e565b005b6100cc60048036038101906100c7919061081c565b6103ac565b005b6100e860048036038101906100e3919061085c565b610573565b6040516100f59190610772565b60405180910390f35b6000600154905090565b6000811161014b576040517f08c379a00000000000000000000000000000000000000000000000000000000081526004016101429061090c565b60405180910390fd5b610154826105bb565b50806000808473ffffffffffffffffffffffffffffffffffffffff1673ffffffffffffffffffffffffffffffffffffffff16815260200190815260200160002060008282546101a3919061095b565b9250508190555080600160008282546101bc919061095b565b925050819055508173ffffffffffffffffffffffffffffffffffffffff167fd15c9547ea5c06670c0010ce19bc32d54682a4b3801ece7f3ab0c3f17106b4bb826040516102099190610772565b60405180910390a27f3ef0a461e69a46a1c2286862cd271536d024c707fc668065620f81f8d778d8e66001546040516102429190610772565b60405180910390a15050565b60008060008373ffffffffffffffffffffffffffffffffffffffff1673ffffffffffffffffffffffffffffffffffffffff16815260200190815260200160002054146102cf576040517f08c379a00000000000000000000000000000000000000000000000000000000081526004016102c6906109db565b60405180910390fd5b60008060008373ffffffffffffffffffffffffffffffffffffffff1673ffffffffffffffffffffffffffffffffffffffff16815260200190815260200160002081905550600060016000828254610326919061095b565b925050819055508073ffffffffffffffffffffffffffffffffffffffff167f805996f252884581e2f74cf3d2b03564d5ec26ccc90850ae12653dc1b72d1fa260405160405180910390a27f3ef0a461e69a46a1c2286862cd271536d024c707fc668065620f81f8d778d8e66001546040516103a19190610772565b60405180910390a150565b600081116103ef576040517f08c379a00000000000000000000000000000000000000000000000000000000081526004016103e690610a6d565b60405180910390fd5b6000808373ffffffffffffffffffffffffffffffffffffffff1673ffffffffffffffffffffffffffffffffffffffff16815260200190815260200160002054811115610470576040517f08c379a000000000000000000000000000000000000000000000000000000000815260040161046790610ad9565b60405180910390fd5b610479826105bb565b50806000808473ffffffffffffffffffffffffffffffffffffffff1673ffffffffffffffffffffffffffffffffffffffff16815260200190815260200160002060008282546104c89190610af9565b9250508190555080600160008282546104e19190610af9565b925050819055508173ffffffffffffffffffffffffffffffffffffffff167fbc158bb64f05d6383aea69bbb0b20c1bbf4b7a18f63359c5649b7c39e29d38848260405161052e9190610772565b60405180910390a27f3ef0a461e69a46a1c2286862cd271536d024c707fc668065620f81f8d778d8e66001546040516105679190610772565b60405180910390a15050565b60008060008373ffffffffffffffffffffffffffffffffffffffff1673ffffffffffffffffffffffffffffffffffffffff168152602001908152602001600020549050919050565b6000806000808473ffffffffffffffffffffffffffffffffffffffff1673ffffffffffffffffffffffffffffffffffffffff16815260200190815260200160002054111561074f576000600354426106139190610af9565b9050600063bbf81e008260025460015461062d9190610b2d565b6106379190610b2d565b6106419190610b9e565b905042600381905550806001600082825461065c919061095b565b925050819055506001546000808673ffffffffffffffffffffffffffffffffffffffff1673ffffffffffffffffffffffffffffffffffffffff16815260200190815260200160002054826106b09190610b2d565b6106ba9190610b9e565b9250826000803373ffffffffffffffffffffffffffffffffffffffff1673ffffffffffffffffffffffffffffffffffffffff168152602001908152602001600020600082825461070a919061095b565b925050819055507fc4f4a463e90f0c4b77e80da0bd41d2915beeed53b5b9bd1427325e93699451ff816040516107409190610772565b60405180910390a15050610754565b600090505b919050565b6000819050919050565b61076c81610759565b82525050565b60006020820190506107876000830184610763565b92915050565b600080fd5b600073ffffffffffffffffffffffffffffffffffffffff82169050919050565b60006107bd82610792565b9050919050565b6107cd816107b2565b81146107d857600080fd5b50565b6000813590506107ea816107c4565b92915050565b6107f981610759565b811461080457600080fd5b50565b600081359050610816816107f0565b92915050565b600080604083850312156108335761083261078d565b5b6000610841858286016107db565b925050602061085285828601610807565b9150509250929050565b6000602082840312156108725761087161078d565b5b6000610880848285016107db565b91505092915050565b600082825260208201905092915050565b7f4465706f73697420616d6f756e742073686f756c64206265206772656174657260008201527f207468616e203000000000000000000000000000000000000000000000000000602082015250565b60006108f6602783610889565b91506109018261089a565b604082019050919050565b60006020820190508181036000830152610925816108e9565b9050919050565b7f4e487b7100000000000000000000000000000000000000000000000000000000600052601160045260246000fd5b600061096682610759565b915061097183610759565b92508282019050808211156109895761098861092c565b5b92915050565b7f4163636f756e7420616c72656164792065786973747300000000000000000000600082015250565b60006109c5601683610889565b91506109d08261098f565b602082019050919050565b600060208201905081810360008301526109f4816109b8565b9050919050565b7f5769746864726177616c20616d6f756e742073686f756c64206265206772656160008201527f746572207468616e203000000000000000000000000000000000000000000000602082015250565b6000610a57602a83610889565b9150610a62826109fb565b604082019050919050565b60006020820190508181036000830152610a8681610a4a565b9050919050565b7f496e73756666696369656e742062616c616e6365000000000000000000000000600082015250565b6000610ac3601483610889565b9150610ace82610a8d565b602082019050919050565b60006020820190508181036000830152610af281610ab6565b9050919050565b6000610b0482610759565b9150610b0f83610759565b9250828203905081811115610b2757610b2661092c565b5b92915050565b6000610b3882610759565b9150610b4383610759565b9250828202610b5181610759565b91508282048414831517610b6857610b6761092c565b5b5092915050565b7f4e487b7100000000000000000000000000000000000000000000000000000000600052601260045260246000fd5b6000610ba982610759565b9150610bb483610759565b925082610bc457610bc3610b6f565b5b82820490509291505056fea264697066735822122081d4b20410cdca736516fcfa7bd93eb75e3b732b2b7d1bf52bf12750643ed01e64736f6c63430008130033",
  "devdoc": {
    "kind": "dev",
    "methods": {},
    "version": 1
  },
  "userdoc": {
    "kind": "user",
    "methods": {},
    "version": 1
  },
  "storageLayout": {
    "storage": [
      {
        "astId": 5,
        "contract": "contracts/SimpleBank.sol:SimpleBank",
        "label": "balances",
        "offset": 0,
        "slot": "0",
        "type": "t_mapping(t_address,t_uint256)"
      },
      {
        "astId": 7,
        "contract": "contracts/SimpleBank.sol:SimpleBank",
        "label": "totalBalance",
        "offset": 0,
        "slot": "1",
        "type": "t_uint256"
      },
      {
        "astId": 9,
        "contract": "contracts/SimpleBank.sol:SimpleBank",
        "label": "interestRate",
        "offset": 0,
        "slot": "2",
        "type": "t_uint256"
      },
      {
        "astId": 11,
        "contract": "contracts/SimpleBank.sol:SimpleBank",
        "label": "lastInterestCalculationTime",
        "offset": 0,
        "slot": "3",
        "type": "t_uint256"
      }
    ],
    "types": {
      "t_address": {
        "encoding": "inplace",
        "label": "address",
        "numberOfBytes": "20"
      },
      "t_mapping(t_address,t_uint256)": {
        "encoding": "mapping",
        "key": "t_address",
        "label": "mapping(address => uint256)",
        "numberOfBytes": "32",
        "value": "t_uint256"
      },
      "t_uint256": {
        "encoding": "inplace",
        "label": "uint256",
        "numberOfBytes": "32"
      }
    }
  }
}