{
  "address": "0x2B2f78c5BF6D9C12Ee1225D5F374aa91204580c3",
  "abi": [
    {
      "inputs": [
        {
          "internalType": "uint256",
          "name": "_interestRate",
          "type": "uint256"
        }
      ],
      "stateMutability": "nonpayable",
      "type": "constructor"
    },
    {
      "anonymous": false,
      "inputs": [
        {
          "indexed": false,
          "internalType": "uint256",
          "name": "interest",
          "type": "uint256"
        }
      ],
      "name": "InterestCalculated",
      "type": "event"
    },
    {
      "inputs": [],
      "name": "calculateInterest",
      "outputs": [
        {
          "internalType": "uint256",
          "name": "",
          "type": "uint256"
        }
      ],
      "stateMutability": "nonpayable",
      "type": "function"
    },
    {
      "inputs": [],
      "name": "getInterestRate",
      "outputs": [
        {
          "internalType": "uint256",
          "name": "",
          "type": "uint256"
        }
      ],
      "stateMutability": "view",
      "type": "function"
    },
    {
      "inputs": [],
      "name": "getTotalBalance",
      "outputs": [
        {
          "internalType": "uint256",
          "name": "",
          "type": "uint256"
        }
      ],
      "stateMutability": "view",
      "type": "function"
    },
    {
      "inputs": [
        {
          "internalType": "uint256",
          "name": "_interestRate",
          "type": "uint256"
        }
      ],
      "name": "setInterestRate",
      "outputs": [],
      "stateMutability": "nonpayable",
      "type": "function"
    }
  ],
  "transactionHash": "0x553a0671424b68a445abfb653eaf214f18517aebe529b525cd31ad0c6ddfdc7f",
  "args": [
    10
  ],
  "numDeployments": 1,
  "solcInputHash": "655ac0fa964e2fdcc36a7869a1e5580e",
  "bytecode": "0x608060405234801561001057600080fd5b5060405161043a38038061043a8339818101604052810190610032919061007a565b80600281905550506100a7565b600080fd5b6000819050919050565b61005781610044565b811461006257600080fd5b50565b6000815190506100748161004e565b92915050565b6000602082840312156100905761008f61003f565b5b600061009e84828501610065565b91505092915050565b610384806100b66000396000f3fe608060405234801561001057600080fd5b506004361061004c5760003560e01c806312b58349146100515780635257b5661461006f5780635f84f3021461008d578063eb0c4955146100a9575b600080fd5b6100596100c7565b604051610066919061019c565b60405180910390f35b6100776100d0565b604051610084919061019c565b60405180910390f35b6100a760048036038101906100a291906101e8565b6100da565b005b6100b16100e4565b6040516100be919061019c565b60405180910390f35b60008054905090565b6000600254905090565b8060028190555050565b600080600154426100f59190610244565b905060006301e133808260025460005461010f9190610278565b6101199190610278565b61012391906102e9565b9050426001819055508060008082825461013d919061031a565b925050819055507fc4f4a463e90f0c4b77e80da0bd41d2915beeed53b5b9bd1427325e93699451ff81604051610173919061019c565b60405180910390a1809250505090565b6000819050919050565b61019681610183565b82525050565b60006020820190506101b1600083018461018d565b92915050565b600080fd5b6101c581610183565b81146101d057600080fd5b50565b6000813590506101e2816101bc565b92915050565b6000602082840312156101fe576101fd6101b7565b5b600061020c848285016101d3565b91505092915050565b7f4e487b7100000000000000000000000000000000000000000000000000000000600052601160045260246000fd5b600061024f82610183565b915061025a83610183565b925082820390508181111561027257610271610215565b5b92915050565b600061028382610183565b915061028e83610183565b925082820261029c81610183565b915082820484148315176102b3576102b2610215565b5b5092915050565b7f4e487b7100000000000000000000000000000000000000000000000000000000600052601260045260246000fd5b60006102f482610183565b91506102ff83610183565b92508261030f5761030e6102ba565b5b828204905092915050565b600061032582610183565b915061033083610183565b925082820190508082111561034857610347610215565b5b9291505056fea264697066735822122093ee0debc31bf29a1901ac17c40715041648000e24ee6eb3aee3629b6a8823be64736f6c63430008130033",
  "devdoc": {
    "kind": "dev",
    "methods": {},
    "version": 1
  },
  "userdoc": {
    "kind": "user",
    "methods": {},
    "version": 1
  },
  "storageLayout": {
    "storage": [
      {
        "astId": 221,
        "contract": "contracts/SimpleBank.sol:Treasury",
        "label": "totalBalance",
        "offset": 0,
        "slot": "0",
        "type": "t_uint256"
      },
      {
        "astId": 223,
        "contract": "contracts/SimpleBank.sol:Treasury",
        "label": "lastInterestCalculationTime",
        "offset": 0,
        "slot": "1",
        "type": "t_uint256"
      },
      {
        "astId": 225,
        "contract": "contracts/SimpleBank.sol:Treasury",
        "label": "interestRate",
        "offset": 0,
        "slot": "2",
        "type": "t_uint256"
      }
    ],
    "types": {
      "t_uint256": {
        "encoding": "inplace",
        "label": "uint256",
        "numberOfBytes": "32"
      }
    }
  }
}